{
  "_format": "hh-sol-artifact-1",
  "contractName": "Lock",
  "sourceName": "contracts/Lock.sol",
  "abi": [
    {
      "inputs": [
        {
          "internalType": "uint256",
          "name": "_unlockTime",
          "type": "uint256"
        }
      ],
      "stateMutability": "payable",
      "type": "constructor"
    },
    {
      "anonymous": false,
      "inputs": [
        {
          "indexed": true,
          "internalType": "address",
          "name": "from",
          "type": "address"
        },
        {
          "indexed": false,
          "internalType": "uint256",
          "name": "amount",
          "type": "uint256"
        },
        {
          "indexed": false,
          "internalType": "uint256",
          "name": "when",
          "type": "uint256"
        }
      ],
      "name": "Deposit",
      "type": "event"
    },
    {
      "anonymous": false,
      "inputs": [
        {
          "indexed": false,
          "internalType": "uint256",
          "name": "amount",
          "type": "uint256"
        },
        {
          "indexed": false,
          "internalType": "uint256",
          "name": "when",
          "type": "uint256"
        }
      ],
      "name": "Withdrawal",
      "type": "event"
    },
    {
      "inputs": [],
      "name": "deposit",
      "outputs": [],
      "stateMutability": "payable",
      "type": "function"
    },
    {
      "inputs": [],
      "name": "owner",
      "outputs": [
        {
          "internalType": "address payable",
          "name": "",
          "type": "address"
        }
      ],
      "stateMutability": "view",
      "type": "function"
    },
    {
      "inputs": [],
      "name": "unlockTime",
      "outputs": [
        {
          "internalType": "uint256",
          "name": "",
          "type": "uint256"
        }
      ],
      "stateMutability": "view",
      "type": "function"
    },
    {
      "inputs": [],
      "name": "withdraw",
      "outputs": [],
      "stateMutability": "nonpayable",
      "type": "function"
    }
  ],
  "bytecode": "0x60806040526040516107a53803806107a5833981810160405281019061002591906100f0565b804210610067576040517f08c379a000000000000000000000000000000000000000000000000000000000815260040161005e906101a0565b60405180910390fd5b8060008190555033600160006101000a81548173ffffffffffffffffffffffffffffffffffffffff021916908373ffffffffffffffffffffffffffffffffffffffff160217905550506101c0565b600080fd5b6000819050919050565b6100cd816100ba565b81146100d857600080fd5b50565b6000815190506100ea816100c4565b92915050565b600060208284031215610106576101056100b5565b5b6000610114848285016100db565b91505092915050565b600082825260208201905092915050565b7f556e6c6f636b2074696d652073686f756c6420626520696e207468652066757460008201527f7572650000000000000000000000000000000000000000000000000000000000602082015250565b600061018a60238361011d565b91506101958261012e565b604082019050919050565b600060208201905081810360008301526101b98161017d565b9050919050565b6105d6806101cf6000396000f3fe60806040526004361061003f5760003560e01c8063251c1aa3146100445780633ccfd60b1461006f5780638da5cb5b14610086578063d0e30db0146100b1575b600080fd5b34801561005057600080fd5b506100596100bb565b6040516100669190610322565b60405180910390f35b34801561007b57600080fd5b506100846100c1565b005b34801561009257600080fd5b5061009b61023a565b6040516100a8919061037e565b60405180910390f35b6100b9610260565b005b60005481565b600054421015610106576040517f08c379a00000000000000000000000000000000000000000000000000000000081526004016100fd906103f6565b60405180910390fd5b600160009054906101000a900473ffffffffffffffffffffffffffffffffffffffff1673ffffffffffffffffffffffffffffffffffffffff163373ffffffffffffffffffffffffffffffffffffffff1614610196576040517f08c379a000000000000000000000000000000000000000000000000000000000815260040161018d90610462565b60405180910390fd5b7fbf2ed60bd5b5965d685680c01195c9514e4382e28e3a5a2d2d5244bf59411b9347426040516101c7929190610482565b60405180910390a1600160009054906101000a900473ffffffffffffffffffffffffffffffffffffffff1673ffffffffffffffffffffffffffffffffffffffff166108fc479081150290604051600060405180830381858888f19350505050158015610237573d6000803e3d6000fd5b50565b600160009054906101000a900473ffffffffffffffffffffffffffffffffffffffff1681565b600034116102a3576040517f08c379a000000000000000000000000000000000000000000000000000000000815260040161029a9061051d565b60405180910390fd5b610258426102b1919061056c565b6000819055503373ffffffffffffffffffffffffffffffffffffffff167f90890809c654f11d6e72a28fa60149770a0d11ec6c92319d6ceb2bb0a4ea1a1534426040516102ff929190610482565b60405180910390a2565b6000819050919050565b61031c81610309565b82525050565b60006020820190506103376000830184610313565b92915050565b600073ffffffffffffffffffffffffffffffffffffffff82169050919050565b60006103688261033d565b9050919050565b6103788161035d565b82525050565b6000602082019050610393600083018461036f565b92915050565b600082825260208201905092915050565b7f596f752063616e27742077697468647261772079657400000000000000000000600082015250565b60006103e0601683610399565b91506103eb826103aa565b602082019050919050565b6000602082019050818103600083015261040f816103d3565b9050919050565b7f596f75206172656e277420746865206f776e6572000000000000000000000000600082015250565b600061044c601483610399565b915061045782610416565b602082019050919050565b6000602082019050818103600083015261047b8161043f565b9050919050565b60006040820190506104976000830185610313565b6104a46020830184610313565b9392505050565b7f4465706f73697420616d6f756e74206d7573742062652067726561746572207460008201527f68616e207a65726f000000000000000000000000000000000000000000000000602082015250565b6000610507602883610399565b9150610512826104ab565b604082019050919050565b60006020820190508181036000830152610536816104fa565b9050919050565b7f4e487b7100000000000000000000000000000000000000000000000000000000600052601160045260246000fd5b600061057782610309565b915061058283610309565b925082820190508082111561059a5761059961053d565b5b9291505056fea264697066735822122069c63f40aa1172b23d896ec16ec018c2b35a1b17019d6f4cba8fcb1cc64c992f64736f6c634300081c0033",
  "linkReferences": {},
  "deployedLinkReferences": {}
}