{
  "_format": "hh-sol-artifact-1",
  "contractName": "Lock",
  "sourceName": "contracts/Lock.sol",
  "abi": [
    {
      "anonymous": false,
      "inputs": [
        {
          "indexed": true,
          "internalType": "address",
          "name": "user",
          "type": "address"
        },
        {
          "indexed": false,
          "internalType": "uint256",
          "name": "amount",
          "type": "uint256"
        },
        {
          "indexed": false,
          "internalType": "uint256",
          "name": "when",
          "type": "uint256"
        }
      ],
      "name": "Deposit",
      "type": "event"
    },
    {
      "anonymous": false,
      "inputs": [
        {
          "indexed": true,
          "internalType": "address",
          "name": "user",
          "type": "address"
        },
        {
          "indexed": false,
          "internalType": "uint256",
          "name": "amount",
          "type": "uint256"
        },
        {
          "indexed": false,
          "internalType": "uint256",
          "name": "when",
          "type": "uint256"
        }
      ],
      "name": "Withdrawal",
      "type": "event"
    },
    {
      "inputs": [],
      "name": "deposit",
      "outputs": [],
      "stateMutability": "payable",
      "type": "function"
    },
    {
      "inputs": [
        {
          "internalType": "address",
          "name": "",
          "type": "address"
        }
      ],
      "name": "deposits",
      "outputs": [
        {
          "internalType": "uint256",
          "name": "amount",
          "type": "uint256"
        },
        {
          "internalType": "uint256",
          "name": "unlockTime",
          "type": "uint256"
        }
      ],
      "stateMutability": "view",
      "type": "function"
    },
    {
      "inputs": [],
      "name": "withdraw",
      "outputs": [],
      "stateMutability": "nonpayable",
      "type": "function"
    }
  ],
  "bytecode": "0x6080604052348015600f57600080fd5b506106608061001f6000396000f3fe6080604052600436106100345760003560e01c80633ccfd60b14610039578063d0e30db014610050578063fc7e286d1461005a575b600080fd5b34801561004557600080fd5b5061004e610098565b005b610058610216565b005b34801561006657600080fd5b50610081600480360381019061007c91906103dd565b610356565b60405161008f929190610423565b60405180910390f35b60008060003373ffffffffffffffffffffffffffffffffffffffff1673ffffffffffffffffffffffffffffffffffffffff16815260200190815260200160002090506000816000015411610121576040517f08c379a0000000000000000000000000000000000000000000000000000000008152600401610118906104a9565b60405180910390fd5b8060010154421015610168576040517f08c379a000000000000000000000000000000000000000000000000000000000815260040161015f90610515565b60405180910390fd5b600081600001549050600082600001819055503373ffffffffffffffffffffffffffffffffffffffff166108fc829081150290604051600060405180830381858888f193505050501580156101c1573d6000803e3d6000fd5b503373ffffffffffffffffffffffffffffffffffffffff167fdf273cb619d95419a9cd0ec88123a0538c85064229baa6363788f743fff90deb824260405161020a929190610423565b60405180910390a25050565b60003411610259576040517f08c379a0000000000000000000000000000000000000000000000000000000008152600401610250906105a7565b60405180910390fd5b346000803373ffffffffffffffffffffffffffffffffffffffff1673ffffffffffffffffffffffffffffffffffffffff16815260200190815260200160002060000160008282546102aa91906105f6565b92505081905550610258426102bf91906105f6565b6000803373ffffffffffffffffffffffffffffffffffffffff1673ffffffffffffffffffffffffffffffffffffffff168152602001908152602001600020600101819055503373ffffffffffffffffffffffffffffffffffffffff167f90890809c654f11d6e72a28fa60149770a0d11ec6c92319d6ceb2bb0a4ea1a15344260405161034c929190610423565b60405180910390a2565b60006020528060005260406000206000915090508060000154908060010154905082565b600080fd5b600073ffffffffffffffffffffffffffffffffffffffff82169050919050565b60006103aa8261037f565b9050919050565b6103ba8161039f565b81146103c557600080fd5b50565b6000813590506103d7816103b1565b92915050565b6000602082840312156103f3576103f261037a565b5b6000610401848285016103c8565b91505092915050565b6000819050919050565b61041d8161040a565b82525050565b60006040820190506104386000830185610414565b6104456020830184610414565b9392505050565b600082825260208201905092915050565b7f4e6f2066756e647320746f207769746864726177000000000000000000000000600082015250565b600061049360148361044c565b915061049e8261045d565b602082019050919050565b600060208201905081810360008301526104c281610486565b9050919050565b7f596f752063616e27742077697468647261772079657400000000000000000000600082015250565b60006104ff60168361044c565b915061050a826104c9565b602082019050919050565b6000602082019050818103600083015261052e816104f2565b9050919050565b7f4465706f73697420616d6f756e74206d7573742062652067726561746572207460008201527f68616e207a65726f000000000000000000000000000000000000000000000000602082015250565b600061059160288361044c565b915061059c82610535565b604082019050919050565b600060208201905081810360008301526105c081610584565b9050919050565b7f4e487b7100000000000000000000000000000000000000000000000000000000600052601160045260246000fd5b60006106018261040a565b915061060c8361040a565b9250828201905080821115610624576106236105c7565b5b9291505056fea264697066735822122073026ee134a0035f96e8d10a566bd56e6d75fca419ef6a2b03e908a5bbe5cd3c64736f6c634300081c0033",
  "linkReferences": {},
  "deployedLinkReferences": {}
}